{
  "_format": "hh-sol-artifact-1",
  "contractName": "BugBounty",
  "sourceName": "contracts/BugBounty.sol",
  "abi": [
    {
      "inputs": [
        {
          "internalType": "address[]",
          "name": "_committee",
          "type": "address[]"
        },
        {
          "internalType": "uint256",
          "name": "_requiredApprovals",
          "type": "uint256"
        }
      ],
      "stateMutability": "nonpayable",
      "type": "constructor"
    },
    {
      "inputs": [],
      "name": "EnforcedPause",
      "type": "error"
    },
    {
      "inputs": [],
      "name": "ExpectedPause",
      "type": "error"
    },
    {
      "inputs": [
        {
          "internalType": "address",
          "name": "owner",
          "type": "address"
        }
      ],
      "name": "OwnableInvalidOwner",
      "type": "error"
    },
    {
      "inputs": [
        {
          "internalType": "address",
          "name": "account",
          "type": "address"
        }
      ],
      "name": "OwnableUnauthorizedAccount",
      "type": "error"
    },
    {
      "anonymous": false,
      "inputs": [
        {
          "indexed": true,
          "internalType": "uint256",
          "name": "reportId",
          "type": "uint256"
        },
        {
          "indexed": true,
          "internalType": "address",
          "name": "reporter",
          "type": "address"
        },
        {
          "indexed": false,
          "internalType": "string",
          "name": "description",
          "type": "string"
        },
        {
          "indexed": false,
          "internalType": "uint8",
          "name": "severity",
          "type": "uint8"
        }
      ],
      "name": "BugReportSubmitted",
      "type": "event"
    },
    {
      "anonymous": false,
      "inputs": [
        {
          "indexed": true,
          "internalType": "uint256",
          "name": "reportId",
          "type": "uint256"
        },
        {
          "indexed": true,
          "internalType": "address",
          "name": "reporter",
          "type": "address"
        },
        {
          "indexed": false,
          "internalType": "string",
          "name": "reason",
          "type": "string"
        }
      ],
      "name": "DisputeRaised",
      "type": "event"
    },
    {
      "anonymous": false,
      "inputs": [
        {
          "indexed": true,
          "internalType": "uint256",
          "name": "reportId",
          "type": "uint256"
        },
        {
          "indexed": true,
          "internalType": "address",
          "name": "resolver",
          "type": "address"
        }
      ],
      "name": "DisputeResolved",
      "type": "event"
    },
    {
      "anonymous": false,
      "inputs": [
        {
          "indexed": true,
          "internalType": "address",
          "name": "previousOwner",
          "type": "address"
        },
        {
          "indexed": true,
          "internalType": "address",
          "name": "newOwner",
          "type": "address"
        }
      ],
      "name": "OwnershipTransferred",
      "type": "event"
    },
    {
      "anonymous": false,
      "inputs": [
        {
          "indexed": false,
          "internalType": "address",
          "name": "account",
          "type": "address"
        }
      ],
      "name": "Paused",
      "type": "event"
    },
    {
      "anonymous": false,
      "inputs": [
        {
          "indexed": true,
          "internalType": "uint256",
          "name": "payoutId",
          "type": "uint256"
        },
        {
          "indexed": true,
          "internalType": "address",
          "name": "approver",
          "type": "address"
        }
      ],
      "name": "PayoutApproved",
      "type": "event"
    },
    {
      "anonymous": false,
      "inputs": [
        {
          "indexed": true,
          "internalType": "uint256",
          "name": "payoutId",
          "type": "uint256"
        }
      ],
      "name": "PayoutExecuted",
      "type": "event"
    },
    {
      "anonymous": false,
      "inputs": [
        {
          "indexed": true,
          "internalType": "uint256",
          "name": "payoutId",
          "type": "uint256"
        },
        {
          "indexed": true,
          "internalType": "uint256",
          "name": "reportId",
          "type": "uint256"
        },
        {
          "indexed": false,
          "internalType": "address",
          "name": "recipient",
          "type": "address"
        },
        {
          "indexed": false,
          "internalType": "uint256",
          "name": "amount",
          "type": "uint256"
        }
      ],
      "name": "PayoutRequested",
      "type": "event"
    },
    {
      "anonymous": false,
      "inputs": [
        {
          "indexed": false,
          "internalType": "address",
          "name": "account",
          "type": "address"
        }
      ],
      "name": "Unpaused",
      "type": "event"
    },
    {
      "inputs": [
        {
          "internalType": "address",
          "name": "_member",
          "type": "address"
        }
      ],
      "name": "addCommitteeMember",
      "outputs": [],
      "stateMutability": "nonpayable",
      "type": "function"
    },
    {
      "inputs": [
        {
          "internalType": "uint256",
          "name": "reportId",
          "type": "uint256"
        }
      ],
      "name": "approveBug",
      "outputs": [],
      "stateMutability": "nonpayable",
      "type": "function"
    },
    {
      "inputs": [
        {
          "internalType": "uint256",
          "name": "payoutId",
          "type": "uint256"
        }
      ],
      "name": "approvePayout",
      "outputs": [],
      "stateMutability": "nonpayable",
      "type": "function"
    },
    {
      "inputs": [],
      "name": "committeeMemberCount",
      "outputs": [
        {
          "internalType": "uint256",
          "name": "",
          "type": "uint256"
        }
      ],
      "stateMutability": "view",
      "type": "function"
    },
    {
      "inputs": [
        {
          "internalType": "uint256",
          "name": "",
          "type": "uint256"
        }
      ],
      "name": "disputes",
      "outputs": [
        {
          "internalType": "address",
          "name": "reporter",
          "type": "address"
        },
        {
          "internalType": "string",
          "name": "reason",
          "type": "string"
        },
        {
          "internalType": "bool",
          "name": "resolved",
          "type": "bool"
        }
      ],
      "stateMutability": "view",
      "type": "function"
    },
    {
      "inputs": [
        {
          "internalType": "uint256",
          "name": "payoutId",
          "type": "uint256"
        }
      ],
      "name": "executePayout",
      "outputs": [],
      "stateMutability": "nonpayable",
      "type": "function"
    },
    {
      "inputs": [
        {
          "internalType": "address",
          "name": "",
          "type": "address"
        }
      ],
      "name": "isCommitteeMember",
      "outputs": [
        {
          "internalType": "bool",
          "name": "",
          "type": "bool"
        }
      ],
      "stateMutability": "view",
      "type": "function"
    },
    {
      "inputs": [],
      "name": "nextPayoutId",
      "outputs": [
        {
          "internalType": "uint256",
          "name": "",
          "type": "uint256"
        }
      ],
      "stateMutability": "view",
      "type": "function"
    },
    {
      "inputs": [],
      "name": "nextReportId",
      "outputs": [
        {
          "internalType": "uint256",
          "name": "",
          "type": "uint256"
        }
      ],
      "stateMutability": "view",
      "type": "function"
    },
    {
      "inputs": [],
      "name": "owner",
      "outputs": [
        {
          "internalType": "address",
          "name": "",
          "type": "address"
        }
      ],
      "stateMutability": "view",
      "type": "function"
    },
    {
      "inputs": [],
      "name": "pause",
      "outputs": [],
      "stateMutability": "nonpayable",
      "type": "function"
    },
    {
      "inputs": [],
      "name": "paused",
      "outputs": [
        {
          "internalType": "bool",
          "name": "",
          "type": "bool"
        }
      ],
      "stateMutability": "view",
      "type": "function"
    },
    {
      "inputs": [
        {
          "internalType": "uint256",
          "name": "",
          "type": "uint256"
        },
        {
          "internalType": "address",
          "name": "",
          "type": "address"
        }
      ],
      "name": "payoutApprovals",
      "outputs": [
        {
          "internalType": "bool",
          "name": "",
          "type": "bool"
        }
      ],
      "stateMutability": "view",
      "type": "function"
    },
    {
      "inputs": [
        {
          "internalType": "uint256",
          "name": "",
          "type": "uint256"
        }
      ],
      "name": "payouts",
      "outputs": [
        {
          "internalType": "uint256",
          "name": "reportId",
          "type": "uint256"
        },
        {
          "internalType": "address",
          "name": "recipient",
          "type": "address"
        },
        {
          "internalType": "uint256",
          "name": "amount",
          "type": "uint256"
        },
        {
          "internalType": "uint256",
          "name": "approvals",
          "type": "uint256"
        },
        {
          "internalType": "bool",
          "name": "executed",
          "type": "bool"
        }
      ],
      "stateMutability": "view",
      "type": "function"
    },
    {
      "inputs": [
        {
          "internalType": "uint256",
          "name": "reportId",
          "type": "uint256"
        },
        {
          "internalType": "string",
          "name": "reason",
          "type": "string"
        }
      ],
      "name": "raiseDispute",
      "outputs": [],
      "stateMutability": "nonpayable",
      "type": "function"
    },
    {
      "inputs": [
        {
          "internalType": "address",
          "name": "_member",
          "type": "address"
        }
      ],
      "name": "removeCommitteeMember",
      "outputs": [],
      "stateMutability": "nonpayable",
      "type": "function"
    },
    {
      "inputs": [],
      "name": "renounceOwnership",
      "outputs": [],
      "stateMutability": "nonpayable",
      "type": "function"
    },
    {
      "inputs": [
        {
          "internalType": "uint256",
          "name": "",
          "type": "uint256"
        }
      ],
      "name": "reports",
      "outputs": [
        {
          "internalType": "address",
          "name": "reporter",
          "type": "address"
        },
        {
          "internalType": "string",
          "name": "description",
          "type": "string"
        },
        {
          "internalType": "uint8",
          "name": "severity",
          "type": "uint8"
        },
        {
          "internalType": "bool",
          "name": "approved",
          "type": "bool"
        },
        {
          "internalType": "bool",
          "name": "paid",
          "type": "bool"
        },
        {
          "internalType": "bool",
          "name": "payoutRequested",
          "type": "bool"
        }
      ],
      "stateMutability": "view",
      "type": "function"
    },
    {
      "inputs": [
        {
          "internalType": "uint256",
          "name": "reportId",
          "type": "uint256"
        }
      ],
      "name": "requestPayout",
      "outputs": [],
      "stateMutability": "nonpayable",
      "type": "function"
    },
    {
      "inputs": [],
      "name": "requiredApprovals",
      "outputs": [
        {
          "internalType": "uint256",
          "name": "",
          "type": "uint256"
        }
      ],
      "stateMutability": "view",
      "type": "function"
    },
    {
      "inputs": [
        {
          "internalType": "uint256",
          "name": "reportId",
          "type": "uint256"
        },
        {
          "internalType": "bool",
          "name": "approveReport",
          "type": "bool"
        }
      ],
      "name": "resolveDispute",
      "outputs": [],
      "stateMutability": "nonpayable",
      "type": "function"
    },
    {
      "inputs": [
        {
          "internalType": "uint256",
          "name": "_newCount",
          "type": "uint256"
        }
      ],
      "name": "setRequiredApprovals",
      "outputs": [],
      "stateMutability": "nonpayable",
      "type": "function"
    },
    {
      "inputs": [
        {
          "internalType": "string",
          "name": "description",
          "type": "string"
        },
        {
          "internalType": "uint8",
          "name": "severity",
          "type": "uint8"
        }
      ],
      "name": "submitBug",
      "outputs": [],
      "stateMutability": "nonpayable",
      "type": "function"
    },
    {
      "inputs": [
        {
          "internalType": "address",
          "name": "newOwner",
          "type": "address"
        }
      ],
      "name": "transferOwnership",
      "outputs": [],
      "stateMutability": "nonpayable",
      "type": "function"
    },
    {
      "inputs": [],
      "name": "unpause",
      "outputs": [],
      "stateMutability": "nonpayable",
      "type": "function"
    },
    {
      "stateMutability": "payable",
      "type": "receive"
    }
  ],
  "bytecode": "0x60806040523480156200001157600080fd5b506040516200403838038062004038833981810160405281019062000037919062000595565b33600073ffffffffffffffffffffffffffffffffffffffff168173ffffffffffffffffffffffffffffffffffffffff1603620000ad5760006040517f1e4fbdf7000000000000000000000000000000000000000000000000000000008152600401620000a491906200060c565b60405180910390fd5b620000be81620002a860201b60201c565b50600082511162000106576040517f08c379a0000000000000000000000000000000000000000000000000000000008152600401620000fd906200068a565b60405180910390fd5b60008111801562000118575081518111155b6200015a576040517f08c379a0000000000000000000000000000000000000000000000000000000008152600401620001519062000722565b60405180910390fd5b60005b82518110156200028157600073ffffffffffffffffffffffffffffffffffffffff1683828151811062000195576200019462000744565b5b602002602001015173ffffffffffffffffffffffffffffffffffffffff1603620001f6576040517f08c379a0000000000000000000000000000000000000000000000000000000008152600401620001ed90620007c3565b60405180910390fd5b60016004600085848151811062000212576200021162000744565b5b602002602001015173ffffffffffffffffffffffffffffffffffffffff1673ffffffffffffffffffffffffffffffffffffffff16815260200190815260200160002060006101000a81548160ff0219169083151502179055508080620002789062000814565b9150506200015d565b50815160058190555080600681905550600180819055506001600981905550505062000861565b60008060009054906101000a900473ffffffffffffffffffffffffffffffffffffffff169050816000806101000a81548173ffffffffffffffffffffffffffffffffffffffff021916908373ffffffffffffffffffffffffffffffffffffffff1602179055508173ffffffffffffffffffffffffffffffffffffffff168173ffffffffffffffffffffffffffffffffffffffff167f8be0079c531659141344cd1fd0a4f28419497f9722a3daafe3b4186f6b6457e060405160405180910390a35050565b6000604051905090565b600080fd5b600080fd5b600080fd5b6000601f19601f8301169050919050565b7f4e487b7100000000000000000000000000000000000000000000000000000000600052604160045260246000fd5b620003d08262000385565b810181811067ffffffffffffffff82111715620003f257620003f162000396565b5b80604052505050565b6000620004076200036c565b9050620004158282620003c5565b919050565b600067ffffffffffffffff82111562000438576200043762000396565b5b602082029050602081019050919050565b600080fd5b600073ffffffffffffffffffffffffffffffffffffffff82169050919050565b60006200047b826200044e565b9050919050565b6200048d816200046e565b81146200049957600080fd5b50565b600081519050620004ad8162000482565b92915050565b6000620004ca620004c4846200041a565b620003fb565b90508083825260208201905060208402830185811115620004f057620004ef62000449565b5b835b818110156200051d57806200050888826200049c565b845260208401935050602081019050620004f2565b5050509392505050565b600082601f8301126200053f576200053e62000380565b5b815162000551848260208601620004b3565b91505092915050565b6000819050919050565b6200056f816200055a565b81146200057b57600080fd5b50565b6000815190506200058f8162000564565b92915050565b60008060408385031215620005af57620005ae62000376565b5b600083015167ffffffffffffffff811115620005d057620005cf6200037b565b5b620005de8582860162000527565b9250506020620005f1858286016200057e565b9150509250929050565b62000606816200046e565b82525050565b6000602082019050620006236000830184620005fb565b92915050565b600082825260208201905092915050565b7f436f6d6d69747465652063616e6e6f7420626520656d70747900000000000000600082015250565b60006200067260198362000629565b91506200067f826200063a565b602082019050919050565b60006020820190508181036000830152620006a58162000663565b9050919050565b7f496e76616c6964206e756d626572206f6620726571756972656420617070726f60008201527f76616c7300000000000000000000000000000000000000000000000000000000602082015250565b60006200070a60248362000629565b91506200071782620006ac565b604082019050919050565b600060208201905081810360008301526200073d81620006fb565b9050919050565b7f4e487b7100000000000000000000000000000000000000000000000000000000600052603260045260246000fd5b7f496e76616c696420636f6d6d6974746565206d656d6265722061646472657373600082015250565b6000620007ab60208362000629565b9150620007b88262000773565b602082019050919050565b60006020820190508181036000830152620007de816200079c565b9050919050565b7f4e487b7100000000000000000000000000000000000000000000000000000000600052601160045260246000fd5b600062000821826200055a565b91507fffffffffffffffffffffffffffffffffffffffffffffffffffffffffffffffff8203620008565762000855620007e5565b5b600182019050919050565b6137c780620008716000396000f3fe60806040526004361061016a5760003560e01c8063715018a6116100d157806399c1aadc1161008a578063e636d84b11610064578063e636d84b14610502578063e7f1f9531461053f578063f2fde38b14610568578063f3f9d8481461059157610171565b806399c1aadc1461046c578063c942adf714610497578063ca62fa41146104d957610171565b8063715018a61461039657806375af58ef146103ad5780637fad0d48146103d85780638456cb59146104015780638da5cb5b146104185780638f97e3a01461044357610171565b806351e9c42b1161012357806351e9c42b14610286578063564a565d146102af5780635aef573c146102ee5780635c975abb1461031757806360adb844146103425780636e79bbf61461036b57610171565b806319d456831461017657806321814f90146101b3578063222a242e146101dc57806329652e861461020557806334b25ee2146102465780633f4ba83a1461026f57610171565b3661017157005b600080fd5b34801561018257600080fd5b5061019d600480360381019061019891906120b3565b6105bc565b6040516101aa919061210e565b60405180910390f35b3480156101bf57600080fd5b506101da60048036038101906101d59190612129565b6105eb565b005b3480156101e857600080fd5b5061020360048036038101906101fe9190612129565b610848565b005b34801561021157600080fd5b5061022c60048036038101906102279190612129565b6108e2565b60405161023d959493929190612174565b60405180910390f35b34801561025257600080fd5b5061026d600480360381019061026891906121f3565b610945565b005b34801561027b57600080fd5b50610284610b63565b005b34801561029257600080fd5b506102ad60048036038101906102a89190612129565b610b75565b005b3480156102bb57600080fd5b506102d660048036038101906102d19190612129565b610ddb565b6040516102e5939291906122c3565b60405180910390f35b3480156102fa57600080fd5b5061031560048036038101906103109190612366565b610eba565b005b34801561032357600080fd5b5061032c611257565b604051610339919061210e565b60405180910390f35b34801561034e57600080fd5b5061036960048036038101906103649190612129565b61126d565b005b34801561037757600080fd5b50610380611307565b60405161038d91906123c6565b60405180910390f35b3480156103a257600080fd5b506103ab61130d565b005b3480156103b957600080fd5b506103c2611321565b6040516103cf91906123c6565b60405180910390f35b3480156103e457600080fd5b506103ff60048036038101906103fa91906123e1565b611327565b005b34801561040d57600080fd5b506104166114f0565b005b34801561042457600080fd5b5061042d611502565b60405161043a919061240e565b60405180910390f35b34801561044f57600080fd5b5061046a60048036038101906104659190612129565b61152b565b005b34801561047857600080fd5b506104816117f0565b60405161048e91906123c6565b60405180910390f35b3480156104a357600080fd5b506104be60048036038101906104b99190612129565b6117f6565b6040516104d096959493929190612445565b60405180910390f35b3480156104e557600080fd5b5061050060048036038101906104fb91906124d9565b61190e565b005b34801561050e57600080fd5b50610529600480360381019061052491906123e1565b611b59565b604051610536919061210e565b60405180910390f35b34801561054b57600080fd5b50610566600480360381019061056191906123e1565b611b79565b005b34801561057457600080fd5b5061058f600480360381019061058a91906123e1565b611cf0565b005b34801561059d57600080fd5b506105a6611d76565b6040516105b391906123c6565b60405180910390f35b60086020528160005260406000206020528060005260406000206000915091509054906101000a900460ff1681565b6105f3611d7c565b60006007600083815260200190815260200160002090508060040160009054906101000a900460ff161561065c576040517f08c379a000000000000000000000000000000000000000000000000000000000815260040161065390612585565b60405180910390fd5b600654816003015410156106a5576040517f08c379a000000000000000000000000000000000000000000000000000000000815260040161069c90612617565b60405180910390fd5b60018160040160006101000a81548160ff02191690831515021790555060006002600083600001548152602001908152602001600020905060018160020160026101000a81548160ff0219169083151502179055508160020154471015610741576040517f08c379a0000000000000000000000000000000000000000000000000000000008152600401610738906126a9565b60405180910390fd5b60008260010160009054906101000a900473ffffffffffffffffffffffffffffffffffffffff1673ffffffffffffffffffffffffffffffffffffffff16836002015460405161078f906126fa565b60006040518083038185875af1925050503d80600081146107cc576040519150601f19603f3d011682016040523d82523d6000602084013e6107d1565b606091505b5050905080610815576040517f08c379a000000000000000000000000000000000000000000000000000000000815260040161080c9061275b565b60405180910390fd5b837f921111cf8da02f50d459c9db80510eeb1dc2443e86b4a9da3f5e4c8b1e857ec260405160405180910390a250505050565b610850611dbd565b60008111610893576040517f08c379a000000000000000000000000000000000000000000000000000000000815260040161088a906127ed565b60405180910390fd5b6005548111156108d8576040517f08c379a00000000000000000000000000000000000000000000000000000000081526004016108cf9061287f565b60405180910390fd5b8060068190555050565b60076020528060005260406000206000915090508060000154908060010160009054906101000a900473ffffffffffffffffffffffffffffffffffffffff16908060020154908060030154908060040160009054906101000a900460ff16905085565b61094d611dbd565b610955611d7c565b600073ffffffffffffffffffffffffffffffffffffffff166003600084815260200190815260200160002060000160009054906101000a900473ffffffffffffffffffffffffffffffffffffffff1673ffffffffffffffffffffffffffffffffffffffff16036109fa576040517f08c379a00000000000000000000000000000000000000000000000000000000081526004016109f1906128eb565b60405180910390fd5b6003600083815260200190815260200160002060020160009054906101000a900460ff1615610a5e576040517f08c379a0000000000000000000000000000000000000000000000000000000008152600401610a5590612957565b60405180910390fd5b60016003600084815260200190815260200160002060020160006101000a81548160ff0219169083151502179055508015610b1b5760006002600084815260200190815260200160002090508060020160019054906101000a900460ff1615610afc576040517f08c379a0000000000000000000000000000000000000000000000000000000008152600401610af3906129c3565b60405180910390fd5b60018160020160016101000a81548160ff021916908315150217905550505b3373ffffffffffffffffffffffffffffffffffffffff16827ff77ceb5e091d2da041bc760667f9d5fe7a756949eaf29250ad0e60ca6f4c27d960405160405180910390a35050565b610b6b611dbd565b610b73611e44565b565b610b7d611d7c565b600460003373ffffffffffffffffffffffffffffffffffffffff1673ffffffffffffffffffffffffffffffffffffffff16815260200190815260200160002060009054906101000a900460ff16610c09576040517f08c379a0000000000000000000000000000000000000000000000000000000008152600401610c0090612a55565b60405180910390fd5b60006007600083815260200190815260200160002090508060040160009054906101000a900460ff1615610c72576040517f08c379a0000000000000000000000000000000000000000000000000000000008152600401610c6990612585565b60405180910390fd5b6008600083815260200190815260200160002060003373ffffffffffffffffffffffffffffffffffffffff1673ffffffffffffffffffffffffffffffffffffffff16815260200190815260200160002060009054906101000a900460ff1615610d10576040517f08c379a0000000000000000000000000000000000000000000000000000000008152600401610d0790612ae7565b60405180910390fd5b60016008600084815260200190815260200160002060003373ffffffffffffffffffffffffffffffffffffffff1673ffffffffffffffffffffffffffffffffffffffff16815260200190815260200160002060006101000a81548160ff021916908315150217905550806003016000815480929190610d8e90612b36565b91905055503373ffffffffffffffffffffffffffffffffffffffff16827f97defe63eeaa90a00c986824b95ecc33b83986a4fc9ea4523c033b6e0b33e0c060405160405180910390a35050565b60036020528060005260406000206000915090508060000160009054906101000a900473ffffffffffffffffffffffffffffffffffffffff1690806001018054610e2490612bad565b80601f0160208091040260200160405190810160405280929190818152602001828054610e5090612bad565b8015610e9d5780601f10610e7257610100808354040283529160200191610e9d565b820191906000526020600020905b815481529060010190602001808311610e8057829003601f168201915b5050505050908060020160009054906101000a900460ff16905083565b610ec2611d7c565b6000600260008581526020019081526020016000209050600073ffffffffffffffffffffffffffffffffffffffff168160000160009054906101000a900473ffffffffffffffffffffffffffffffffffffffff1673ffffffffffffffffffffffffffffffffffffffff1603610f6c576040517f08c379a0000000000000000000000000000000000000000000000000000000008152600401610f6390612c2a565b60405180910390fd5b8060000160009054906101000a900473ffffffffffffffffffffffffffffffffffffffff1673ffffffffffffffffffffffffffffffffffffffff163373ffffffffffffffffffffffffffffffffffffffff1614610ffe576040517f08c379a0000000000000000000000000000000000000000000000000000000008152600401610ff590612cbc565b60405180910390fd5b8060020160019054906101000a900460ff1615611050576040517f08c379a000000000000000000000000000000000000000000000000000000000815260040161104790612d4e565b60405180910390fd5b600073ffffffffffffffffffffffffffffffffffffffff166003600086815260200190815260200160002060000160009054906101000a900473ffffffffffffffffffffffffffffffffffffffff1673ffffffffffffffffffffffffffffffffffffffff16146110f5576040517f08c379a00000000000000000000000000000000000000000000000000000000081526004016110ec90612de0565b60405180910390fd5b60405180606001604052803373ffffffffffffffffffffffffffffffffffffffff16815260200184848080601f016020809104026020016040519081016040528093929190818152602001838380828437600081840152601f19601f820116905080830192505050505050508152602001600015158152506003600086815260200190815260200160002060008201518160000160006101000a81548173ffffffffffffffffffffffffffffffffffffffff021916908373ffffffffffffffffffffffffffffffffffffffff16021790555060208201518160010190816111dc9190612fdb565b5060408201518160020160006101000a81548160ff0219169083151502179055509050503373ffffffffffffffffffffffffffffffffffffffff16847f1b84372106d77c6daea0dda35bbc0229d10a83f58ec89909288492519368234185856040516112499291906130e9565b60405180910390a350505050565b60008060149054906101000a900460ff16905090565b611275611dbd565b61127d611d7c565b60006002600083815260200190815260200160002090508060020160019054906101000a900460ff16156112e6576040517f08c379a00000000000000000000000000000000000000000000000000000000081526004016112dd90613159565b60405180910390fd5b60018160020160016101000a81548160ff0219169083151502179055505050565b60015481565b611315611dbd565b61131f6000611ea6565b565b60055481565b61132f611dbd565b600073ffffffffffffffffffffffffffffffffffffffff168173ffffffffffffffffffffffffffffffffffffffff160361139e576040517f08c379a0000000000000000000000000000000000000000000000000000000008152600401611395906131c5565b60405180910390fd5b600460008273ffffffffffffffffffffffffffffffffffffffff1673ffffffffffffffffffffffffffffffffffffffff16815260200190815260200160002060009054906101000a900460ff1661142a576040517f08c379a000000000000000000000000000000000000000000000000000000000815260040161142190613257565b60405180910390fd5b600654600160055461143c9190613277565b101561147d576040517f08c379a00000000000000000000000000000000000000000000000000000000081526004016114749061331d565b60405180910390fd5b6000600460008373ffffffffffffffffffffffffffffffffffffffff1673ffffffffffffffffffffffffffffffffffffffff16815260200190815260200160002060006101000a81548160ff021916908315150217905550600560008154809291906114e89061333d565b919050555050565b6114f8611dbd565b611500611f6a565b565b60008060009054906101000a900473ffffffffffffffffffffffffffffffffffffffff16905090565b611533611dbd565b61153b611d7c565b60006002600083815260200190815260200160002090508060020160019054906101000a900460ff166115a3576040517f08c379a000000000000000000000000000000000000000000000000000000000815260040161159a906133b2565b60405180910390fd5b8060020160029054906101000a900460ff16156115f5576040517f08c379a00000000000000000000000000000000000000000000000000000000081526004016115ec9061341e565b60405180910390fd5b8060020160039054906101000a900460ff1615611647576040517f08c379a000000000000000000000000000000000000000000000000000000000815260040161163e906134b0565b60405180910390fd5b60018160020160036101000a81548160ff02191690831515021790555060006064670de0b6b3a76400008360020160009054906101000a900460ff1660ff1661169091906134d0565b61169a9190613541565b9050804710156116df576040517f08c379a00000000000000000000000000000000000000000000000000000000081526004016116d6906135e4565b60405180910390fd5b600060076000600954815260200190815260200160002090508381600001819055508260000160009054906101000a900473ffffffffffffffffffffffffffffffffffffffff168160010160006101000a81548173ffffffffffffffffffffffffffffffffffffffff021916908373ffffffffffffffffffffffffffffffffffffffff160217905550818160020181905550836009547f0b114d22849168e1a5e1917f1c9c33c9be97d8c451de948a9ca465677eaef1728560000160009054906101000a900473ffffffffffffffffffffffffffffffffffffffff16856040516117ca929190613604565b60405180910390a3600960008154809291906117e590612b36565b919050555050505050565b60065481565b60026020528060005260406000206000915090508060000160009054906101000a900473ffffffffffffffffffffffffffffffffffffffff169080600101805461183f90612bad565b80601f016020809104026020016040519081016040528092919081815260200182805461186b90612bad565b80156118b85780601f1061188d576101008083540402835291602001916118b8565b820191906000526020600020905b81548152906001019060200180831161189b57829003601f168201915b5050505050908060020160009054906101000a900460ff16908060020160019054906101000a900460ff16908060020160029054906101000a900460ff16908060020160039054906101000a900460ff16905086565b611916611d7c565b600a8160ff16111561195d576040517f08c379a000000000000000000000000000000000000000000000000000000000815260040161195490613679565b60405180910390fd5b6040518060c001604052803373ffffffffffffffffffffffffffffffffffffffff16815260200184848080601f016020809104026020016040519081016040528093929190818152602001838380828437600081840152601f19601f8201169050808301925050505050505081526020018260ff1681526020016000151581526020016000151581526020016000151581525060026000600154815260200190815260200160002060008201518160000160006101000a81548173ffffffffffffffffffffffffffffffffffffffff021916908373ffffffffffffffffffffffffffffffffffffffff1602179055506020820151816001019081611a619190612fdb565b5060408201518160020160006101000a81548160ff021916908360ff16021790555060608201518160020160016101000a81548160ff02191690831515021790555060808201518160020160026101000a81548160ff02191690831515021790555060a08201518160020160036101000a81548160ff0219169083151502179055509050503373ffffffffffffffffffffffffffffffffffffffff166001547f7b1dacf10b0a74d879e1f2738cc8021ef4bdf32ce2273f27284d7725ea10d6d7858585604051611b3393929190613699565b60405180910390a36001806000828254611b4d91906136cb565b92505081905550505050565b60046020528060005260406000206000915054906101000a900460ff1681565b611b81611dbd565b600073ffffffffffffffffffffffffffffffffffffffff168173ffffffffffffffffffffffffffffffffffffffff1603611bf0576040517f08c379a0000000000000000000000000000000000000000000000000000000008152600401611be7906131c5565b60405180910390fd5b600460008273ffffffffffffffffffffffffffffffffffffffff1673ffffffffffffffffffffffffffffffffffffffff16815260200190815260200160002060009054906101000a900460ff1615611c7d576040517f08c379a0000000000000000000000000000000000000000000000000000000008152600401611c7490613771565b60405180910390fd5b6001600460008373ffffffffffffffffffffffffffffffffffffffff1673ffffffffffffffffffffffffffffffffffffffff16815260200190815260200160002060006101000a81548160ff02191690831515021790555060056000815480929190611ce890612b36565b919050555050565b611cf8611dbd565b600073ffffffffffffffffffffffffffffffffffffffff168173ffffffffffffffffffffffffffffffffffffffff1603611d6a5760006040517f1e4fbdf7000000000000000000000000000000000000000000000000000000008152600401611d61919061240e565b60405180910390fd5b611d7381611ea6565b50565b60095481565b611d84611257565b15611dbb576040517fd93c066500000000000000000000000000000000000000000000000000000000815260040160405180910390fd5b565b611dc5611fcd565b73ffffffffffffffffffffffffffffffffffffffff16611de3611502565b73ffffffffffffffffffffffffffffffffffffffff1614611e4257611e06611fcd565b6040517f118cdaa7000000000000000000000000000000000000000000000000000000008152600401611e39919061240e565b60405180910390fd5b565b611e4c611fd5565b60008060146101000a81548160ff0219169083151502179055507f5db9ee0a495bf2e6ff9c91a7834c1ba4fdd244a5e8aa4e537bd38aeae4b073aa611e8f611fcd565b604051611e9c919061240e565b60405180910390a1565b60008060009054906101000a900473ffffffffffffffffffffffffffffffffffffffff169050816000806101000a81548173ffffffffffffffffffffffffffffffffffffffff021916908373ffffffffffffffffffffffffffffffffffffffff1602179055508173ffffffffffffffffffffffffffffffffffffffff168173ffffffffffffffffffffffffffffffffffffffff167f8be0079c531659141344cd1fd0a4f28419497f9722a3daafe3b4186f6b6457e060405160405180910390a35050565b611f72611d7c565b6001600060146101000a81548160ff0219169083151502179055507f62e78cea01bee320cd4e420270b5ea74000d11b0c9f74754ebdbfc544b05a258611fb6611fcd565b604051611fc3919061240e565b60405180910390a1565b600033905090565b611fdd611257565b612013576040517f8dfc202b00000000000000000000000000000000000000000000000000000000815260040160405180910390fd5b565b600080fd5b600080fd5b6000819050919050565b6120328161201f565b811461203d57600080fd5b50565b60008135905061204f81612029565b92915050565b600073ffffffffffffffffffffffffffffffffffffffff82169050919050565b600061208082612055565b9050919050565b61209081612075565b811461209b57600080fd5b50565b6000813590506120ad81612087565b92915050565b600080604083850312156120ca576120c9612015565b5b60006120d885828601612040565b92505060206120e98582860161209e565b9150509250929050565b60008115159050919050565b612108816120f3565b82525050565b600060208201905061212360008301846120ff565b92915050565b60006020828403121561213f5761213e612015565b5b600061214d84828501612040565b91505092915050565b61215f8161201f565b82525050565b61216e81612075565b82525050565b600060a0820190506121896000830188612156565b6121966020830187612165565b6121a36040830186612156565b6121b06060830185612156565b6121bd60808301846120ff565b9695505050505050565b6121d0816120f3565b81146121db57600080fd5b50565b6000813590506121ed816121c7565b92915050565b6000806040838503121561220a57612209612015565b5b600061221885828601612040565b9250506020612229858286016121de565b9150509250929050565b600081519050919050565b600082825260208201905092915050565b60005b8381101561226d578082015181840152602081019050612252565b60008484015250505050565b6000601f19601f8301169050919050565b600061229582612233565b61229f818561223e565b93506122af81856020860161224f565b6122b881612279565b840191505092915050565b60006060820190506122d86000830186612165565b81810360208301526122ea818561228a565b90506122f960408301846120ff565b949350505050565b600080fd5b600080fd5b600080fd5b60008083601f84011261232657612325612301565b5b8235905067ffffffffffffffff81111561234357612342612306565b5b60208301915083600182028301111561235f5761235e61230b565b5b9250929050565b60008060006040848603121561237f5761237e612015565b5b600061238d86828701612040565b935050602084013567ffffffffffffffff8111156123ae576123ad61201a565b5b6123ba86828701612310565b92509250509250925092565b60006020820190506123db6000830184612156565b92915050565b6000602082840312156123f7576123f6612015565b5b60006124058482850161209e565b91505092915050565b60006020820190506124236000830184612165565b92915050565b600060ff82169050919050565b61243f81612429565b82525050565b600060c08201905061245a6000830189612165565b818103602083015261246c818861228a565b905061247b6040830187612436565b61248860608301866120ff565b61249560808301856120ff565b6124a260a08301846120ff565b979650505050505050565b6124b681612429565b81146124c157600080fd5b50565b6000813590506124d3816124ad565b92915050565b6000806000604084860312156124f2576124f1612015565b5b600084013567ffffffffffffffff8111156125105761250f61201a565b5b61251c86828701612310565b9350935050602061252f868287016124c4565b9150509250925092565b7f5061796f75742068617320616c7265616479206265656e206578656375746564600082015250565b600061256f60208361223e565b915061257a82612539565b602082019050919050565b6000602082019050818103600083015261259e81612562565b9050919050565b7f4e6f7420656e6f75676820617070726f76616c7320746f20657865637574652060008201527f7061796f75740000000000000000000000000000000000000000000000000000602082015250565b600061260160268361223e565b915061260c826125a5565b604082019050919050565b60006020820190508181036000830152612630816125f4565b9050919050565b7f496e73756666696369656e742066756e647320746f206578656375746520706160008201527f796f757400000000000000000000000000000000000000000000000000000000602082015250565b600061269360248361223e565b915061269e82612637565b604082019050919050565b600060208201905081810360008301526126c281612686565b9050919050565b600081905092915050565b50565b60006126e46000836126c9565b91506126ef826126d4565b600082019050919050565b6000612705826126d7565b9150819050919050565b7f5472616e73666572206661696c65640000000000000000000000000000000000600082015250565b6000612745600f8361223e565b91506127508261270f565b602082019050919050565b6000602082019050818103600083015261277481612738565b9050919050565b7f526571756972656420617070726f76616c73206d75737420626520677265617460008201527f6572207468616e207a65726f0000000000000000000000000000000000000000602082015250565b60006127d7602c8361223e565b91506127e28261277b565b604082019050919050565b60006020820190508181036000830152612806816127ca565b9050919050565b7f43616e6e6f742072657175697265206d6f726520617070726f76616c7320746860008201527f616e20636f6d6d6974746565206d656d62657273000000000000000000000000602082015250565b600061286960348361223e565b91506128748261280d565b604082019050919050565b600060208201905081810360008301526128988161285c565b9050919050565b7f4e6f206469737075746520666f756e6420666f722074686973207265706f7274600082015250565b60006128d560208361223e565b91506128e08261289f565b602082019050919050565b60006020820190508181036000830152612904816128c8565b9050919050565b7f4469737075746520616c7265616479207265736f6c7665640000000000000000600082015250565b600061294160188361223e565b915061294c8261290b565b602082019050919050565b6000602082019050818103600083015261297081612934565b9050919050565b7f5265706f727420616c726561647920617070726f766564000000000000000000600082015250565b60006129ad60178361223e565b91506129b882612977565b602082019050919050565b600060208201905081810360008301526129dc816129a0565b9050919050565b7f4f6e6c7920636f6d6d6974746565206d656d626572732063616e20617070726f60008201527f7665000000000000000000000000000000000000000000000000000000000000602082015250565b6000612a3f60228361223e565b9150612a4a826129e3565b604082019050919050565b60006020820190508181036000830152612a6e81612a32565b9050919050565b7f596f75206861766520616c726561647920617070726f7665642074686973207060008201527f61796f7574000000000000000000000000000000000000000000000000000000602082015250565b6000612ad160258361223e565b9150612adc82612a75565b604082019050919050565b60006020820190508181036000830152612b0081612ac4565b9050919050565b7f4e487b7100000000000000000000000000000000000000000000000000000000600052601160045260246000fd5b6000612b418261201f565b91507fffffffffffffffffffffffffffffffffffffffffffffffffffffffffffffffff8203612b7357612b72612b07565b5b600182019050919050565b7f4e487b7100000000000000000000000000000000000000000000000000000000600052602260045260246000fd5b60006002820490506001821680612bc557607f821691505b602082108103612bd857612bd7612b7e565b5b50919050565b7f5265706f727420646f6573206e6f742065786973740000000000000000000000600082015250565b6000612c1460158361223e565b9150612c1f82612bde565b602082019050919050565b60006020820190508181036000830152612c4381612c07565b9050919050565b7f4f6e6c7920746865207265706f727465722063616e207261697365206120646960008201527f7370757465000000000000000000000000000000000000000000000000000000602082015250565b6000612ca660258361223e565b9150612cb182612c4a565b604082019050919050565b60006020820190508181036000830152612cd581612c99565b9050919050565b7f43616e6e6f74206469737075746520616e20617070726f766564207265706f7260008201527f7400000000000000000000000000000000000000000000000000000000000000602082015250565b6000612d3860218361223e565b9150612d4382612cdc565b604082019050919050565b60006020820190508181036000830152612d6781612d2b565b9050919050565b7f4469737075746520616c72656164792072616973656420666f7220746869732060008201527f7265706f72740000000000000000000000000000000000000000000000000000602082015250565b6000612dca60268361223e565b9150612dd582612d6e565b604082019050919050565b60006020820190508181036000830152612df981612dbd565b9050919050565b7f4e487b7100000000000000000000000000000000000000000000000000000000600052604160045260246000fd5b60008190508160005260206000209050919050565b60006020601f8301049050919050565b600082821b905092915050565b600060088302612e917fffffffffffffffffffffffffffffffffffffffffffffffffffffffffffffffff82612e54565b612e9b8683612e54565b95508019841693508086168417925050509392505050565b6000819050919050565b6000612ed8612ed3612ece8461201f565b612eb3565b61201f565b9050919050565b6000819050919050565b612ef283612ebd565b612f06612efe82612edf565b848454612e61565b825550505050565b600090565b612f1b612f0e565b612f26818484612ee9565b505050565b5b81811015612f4a57612f3f600082612f13565b600181019050612f2c565b5050565b601f821115612f8f57612f6081612e2f565b612f6984612e44565b81016020851015612f78578190505b612f8c612f8485612e44565b830182612f2b565b50505b505050565b600082821c905092915050565b6000612fb260001984600802612f94565b1980831691505092915050565b6000612fcb8383612fa1565b9150826002028217905092915050565b612fe482612233565b67ffffffffffffffff811115612ffd57612ffc612e00565b5b6130078254612bad565b613012828285612f4e565b600060209050601f8311600181146130455760008415613033578287015190505b61303d8582612fbf565b8655506130a5565b601f19841661305386612e2f565b60005b8281101561307b57848901518255600182019150602085019450602081019050613056565b868310156130985784890151613094601f891682612fa1565b8355505b6001600288020188555050505b505050505050565b82818337600083830152505050565b60006130c8838561223e565b93506130d58385846130ad565b6130de83612279565b840190509392505050565b600060208201905081810360008301526131048184866130bc565b90509392505050565b7f416c726561647920617070726f76656400000000000000000000000000000000600082015250565b600061314360108361223e565b915061314e8261310d565b602082019050919050565b6000602082019050818103600083015261317281613136565b9050919050565b7f496e76616c696420616464726573730000000000000000000000000000000000600082015250565b60006131af600f8361223e565b91506131ba82613179565b602082019050919050565b600060208201905081810360008301526131de816131a2565b9050919050565b7f41646472657373206973206e6f74206120636f6d6d6974746565206d656d626560008201527f7200000000000000000000000000000000000000000000000000000000000000602082015250565b600061324160218361223e565b915061324c826131e5565b604082019050919050565b6000602082019050818103600083015261327081613234565b9050919050565b60006132828261201f565b915061328d8361201f565b92508282039050818111156132a5576132a4612b07565b5b92915050565b7f43616e6e6f742068617665206665776572206d656d62657273207468616e207260008201527f6571756972656420617070726f76616c73000000000000000000000000000000602082015250565b600061330760318361223e565b9150613312826132ab565b604082019050919050565b60006020820190508181036000830152613336816132fa565b9050919050565b60006133488261201f565b91506000820361335b5761335a612b07565b5b600182039050919050565b7f5265706f7274206e6f7420617070726f76656400000000000000000000000000600082015250565b600061339c60138361223e565b91506133a782613366565b602082019050919050565b600060208201905081810360008301526133cb8161338f565b9050919050565b7f5265706f727420616c7265616479207061696400000000000000000000000000600082015250565b600061340860138361223e565b9150613413826133d2565b602082019050919050565b60006020820190508181036000830152613437816133fb565b9050919050565b7f5061796f757420616c72656164792072657175657374656420666f722074686960008201527f73207265706f7274000000000000000000000000000000000000000000000000602082015250565b600061349a60288361223e565b91506134a58261343e565b604082019050919050565b600060208201905081810360008301526134c98161348d565b9050919050565b60006134db8261201f565b91506134e68361201f565b92508282026134f48161201f565b9150828204841483151761350b5761350a612b07565b5b5092915050565b7f4e487b7100000000000000000000000000000000000000000000000000000000600052601260045260246000fd5b600061354c8261201f565b91506135578361201f565b92508261356757613566613512565b5b828204905092915050565b7f496e73756666696369656e7420636f6e74726163742062616c616e636520666f60008201527f72207061796f7574000000000000000000000000000000000000000000000000602082015250565b60006135ce60288361223e565b91506135d982613572565b604082019050919050565b600060208201905081810360008301526135fd816135c1565b9050919050565b60006040820190506136196000830185612165565b6136266020830184612156565b9392505050565b7f5365766572697479206d75737420626520302d31300000000000000000000000600082015250565b600061366360158361223e565b915061366e8261362d565b602082019050919050565b6000602082019050818103600083015261369281613656565b9050919050565b600060408201905081810360008301526136b48185876130bc565b90506136c36020830184612436565b949350505050565b60006136d68261201f565b91506136e18361201f565b92508282019050808211156136f9576136f8612b07565b5b92915050565b7f4164647265737320697320616c7265616479206120636f6d6d6974746565206d60008201527f656d626572000000000000000000000000000000000000000000000000000000602082015250565b600061375b60258361223e565b9150613766826136ff565b604082019050919050565b6000602082019050818103600083015261378a8161374e565b905091905056fea2646970667358221220906045953909426db3be6c7646a02de2a9e33508f36d9664aded0706cf2e676864736f6c63430008140033",
  "linkReferences": {},
  "deployedLinkReferences": {}
}